:020000041000EA
:1000000000B5324B212058609868022188439860DF
:10001000D860186158612E4B002199600221596106
:100020000121F02299502B49196001219960352056
:1000300000F044F80222904214D00621196600F024
:1000400034F8196E01211966002018661A6600F04E
:100050002CF8196E196E196E052000F02FF8012189
:100060000842F9D1002199601B49196000215960AB
:100070001A491B48016001219960EB211966A021F2
:10008000196600F012F800219960164914480160C1
:100090000121996001BC002800D000471248134993
:1000A000086003C880F30888084703B5996A0420EC
:1000B0000142FBD001200142F8D103BD02B5186610
:1000C0001866FFF7F2FF186E186E02BD00000240BE
:1000D000000000180000070000035F00212200005C
:1000E000F4000018222000A00001001008ED00E03C
:1000F00000000000000000000000000074B24E7A12
:1001000000200420F7010010CB010010CD010010E9
:10011000C9010010C9010010C9010010C901001077
:10012000C9010010C9010010C9010010CF01001061
:10013000C9010010C9010010D1010010D301001045
:10014000C1010010C1010010C1010010C101001067
:10015000C1010010C1010010C1010010C101001057
:10016000C1010010C1010010C1010010C101001047
:10017000C1010010C1010010C1010010C101001037
:10018000C1010010C1010010C1010010C101001027
:10019000C1010010C1010010C1010010C101001017
:1001A000C1010010C1010010C1010010C101001007
:1001B000C1010010C1010010C1010010C1010010F7
:1001C000EFF30580103800BE00BE00BE00BE00BECA
:1001D00000BE00BEF2EB887130BF071060BF071091
:1001E0003802001090A31AE71E481F49086006C88D
:1001F00081F3088810471D480068002801D019487D
:10020000F3E70DA40ECC002902D000F012F8F9E7B4
:100210001749184A002000E001C19142FCD116495B
:100220008847164988471649884700BEFDE701C937
:1002300001C29A42FBD3704760BF0710C000002084
:100240007018002010D707100000042000000420C0
:1002500010D7071000100420001004200000000038
:10026000704700000000000008ED00E0000000D032
:1002700070180020F458032025D300101D0300102F
:10028000E5D20010F8B5C04606480749091A8B1098
:10029000C90FC91810B5491003D0044B002B00D06A
:1002A000984710BD70180020701800200000000052
:1002B000054B10B5002B03D00449054800E000BFF2
:1002C000FFF7E2FF10BDC04600000000F856012015
:1002D0000043051010B58AB026F09CFE00F044FAE9
:1002E000684600F06FFA1CF0C3FE694601F044FC5A
:1002F000041E0BD007480DF0E7F9200000F070FA5B
:100300002BF002FF052007F013FDF9E7024804F087
:1003100035F8EFE7144305100043051000B585B02C
:1003200000F000F90DF07EF903F098FE00F068F897
:1003300000F098F800F032F812480DF0C5F900F01E
:100340003FFA002819D00023802202930233019340
:10035000023300930C4900230C48120107F074FB90
:10036000012802D00A4804F009F807F081FB094887
:1003700004F004F8002005B000BD074803F0FEFFBC
:10038000E1E7C0462043051068430510D502001080
:10039000704305108C4305104043051070B5E025EF
:1003A00010F002F91F211A2008F064FE124E0022FC
:1003B00000211A2008F078FE00211A2008F0AAFE79
:1003C0003368ED010D4C2B40236010F0EDF81F2138
:1003D0001B2008F04FFE002200211B2008F064FEC5
:1003E00000211B2008F096FE802332685B015340F9
:1003F0002B40236070BDC04600C0044000D00440C4
:1004000010B50421102008F035FE0021102008F05E
:100410006FFE0021102008F05BFE00220C4B0D49FE
:100420001A609A60DA601961F02109015960182197
:100430001A6031321A61084A12684A4012040749A8
:10044000120C0A601A6801239343054A136010BD19
:1004500000000540FFFF00000C0005400C100540A7
:1004600000100540F8B5DE4657464E464546012089
:10047000E0B508F0DDFA8346022008F0D9FA82469A
:10048000032008F0D5FA8146092008F0D1FA804609
:100490000A2008F0CDFA07000B2008F0C9FA060080
:1004A0000C2008F0C5FA05000D2008F0C1FA040080
:1004B000594614480DF08CF9514613480DF088F94F
:1004C000494612480DF084F9414611480DF080F973
:1004D000390010480DF07CF931000F480DF078F923
:1004E00029000E480DF074F921000D480DF070F947
:1004F0000A200DF09FF8F0BCBB46B246A946A046C4
:10050000F8BDC046A0430510B4430510C84305100C
:10051000DC430510F0430510044405101844051091
:100520002C44051000B50F2087B009F00FFE0A20FB
:1005300009F058FC134805AB04AA03A908F0A2FB74
:10054000002803D110480F4908F0D8FC059A0499F7
:10055000039808F0BBFA0D4B0022009300210620FF
:1005600008F0D2F80A4B0B4A0621152008F084FA4D
:100570000021152008F0BCFD0021152008F0A8FD81
:1005800007B000BD80A9030040440510001C4E0EBA
:10059000A08B00009C1C000010B5064C04E001215B
:1005A0002068494204F086FF03F0ECFA0028F6D1F7
:1005B00010BDC04680500120002300B583B00193D8
:1005C0001CF09EFB074B1868002802D001A904F01C
:1005D00091FD019B002B03D08022034B52051A6032
:1005E00003B000BD8050012004ED00E070B582B082
:1005F0000C0003F07DF90138C0B2FD2808D9202392
:100600000022E254174B243405CB05C402B070BD60
:1006100003F03AF96B4601AE9D1D2900300003F04E
:100620005FF93188EF2914DCA0200E4B2A884000A6
:100630001A60824205DA1A60596020220121A15411
:10064000E1E74022FF321A60596020220121A154C3
:10065000D9E7A020034B2A88EF211A60400082428C
:10066000E9DBEEE7001A002010B505F0F5FE10BD3D
:1006700070B5164B06001B780C00150084B0002BDB
:1006800019D0134B0021186804F014FFA3892289A4
:10069000A18820880F4C02960194009503F018FA67
:1006A000002801D004B070BD0B480DF00DF83000EB
:1006B0001CF026FBF6E78B890A892088898800953B
:1006C00003F0B8F930001CF01BFBEBE7EA580320FD
:1006D00080500120B90500107444051030B583B076
:1006E00003F056FA03220021012004F031FC184BDC
:1006F000184D1860002803D003F0B6F900281FD168
:10070000002315482B700CF0DFFFA020F0214000E3
:100710001BF0CCFF04001B211CF0AAFA20000F499B
:100720001CF08EFA2B78002B0DD10023009396231A
:10073000002220000A495B021CF05EF903B030BDC4
:1007400001232B70E1E7200006491CF085FAECE755
:1007500080500120EA580320A444051071060010BF
:10076000802400209905001010B50A4831F012FFCE
:10077000FFF7B4FF03F07AF803F05AF822F0EAFB2F
:100780000400012122F046FC2000034922F04AFC2B
:1007900010BDC04669060010ED0500107047C04648
:1007A000012070477047C0467047C0467047C0463A
:1007B0007047C0467047C0467047C0467047C04645
:1007C00001207047020030B5044B32CB32C232CB2D
:1007D00032C232CB32C21B68136030BD1097051095
:1007E0007047C04670B582B012F068FC05001DF07D
:1007F000B5F8041E2DD0A0234268DB029A4228D10E
:10080000C368012B41D0224828F0BCFA01AE030492
:1008100030700002000E1B0EB070280073701EF0C6
:10082000C9FD002812D0338803870300B27838331B
:100830009A70328838331A80B2789A7001239922DC
:1008400043676633C254E368012B1AD0A368DB0701
:1008500001D402B070BD28001FF0BEFF041EF8D006
:100860000C4828F08FFA2D232200E05403040002E4
:100870002D321B0E000E537090702C23FF22E25479
:10088000E7E76333963AC254E0E70348BCE7C04663
:10089000FAF4EC00362A1D00C8D9420010B528F041
:1008A000AFFEE82304000549C0583AF091FBE0236D
:1008B0000121E05810F022FB10BDC046F04A05109F
:1008C00070B528F09DFEEC2304000121C05810F003
:1008D00015FB40254123E15C635D8B420CD0200079
:1008E00002F054F92368002B02D0615D606A9847DA
:1008F0002000024902F08CF970BDC046E8440510A2
:1009000010B528F07DFE4023C15C0133C1540400C2
:1009100002F066F9EC230121E05810F0EFFA10BD67
:1009200070B5040028F06CFE0500200012F07EFB7C
:10093000A84200D070BD012110F0E0FAFAE7C046ED
:1009400070B5040028F05CFE0500200012F06EFB7C
:10095000040035F02FFA0100200035F049FA041E9A
:1009600014D0104951F0E6FFD823EB5800280ED0E0
:10097000180042F0BFF923782E2B0CD16378002B9E
:1009800009D12E2151F0C4FE002804D070BD1800FA
:1009900042F046F8FAE7D8232100E85841F012FD6A
:1009A000F4E7C046FC44051010B582B010F07EFAA2
:1009B000040018F0B9FC1A4A2000110012F0E2FFFE
:1009C000184828F0DFF901AB187002040002120E7B
:1009D000000E5A70987001992000002219F05EFAFA
:1009E00020000022E52119F069FA200000220A21E6
:1009F00019F02CFA200000220A2119F031FA200007
:100A000000220A2119F00EFA002220000A2119F012
:100A100013FA2000012110F071FA200002B010BD7D
:100A2000640000200C08050030B583B00D0010F004
:100A30003DFA04002A002C4912F0A4FF200015F012
:100A400069FA2A4828F09EF96B46020418700002E1
:100A5000120E000E5A70987000992000002219F0B2
:100A60001DFA0022FF21200019F028FA204828F062
:100A700089F901AB187002040002120E000E5A70C0
:100A8000987001992000002219F02CFA2000002211
:100A9000012119F041FA200000220E2119F0B6FAC6
:100AA000200000220C2119F0D1F9200000220C2195
:100AB00019F0D6F9200000220C2119F0B3F920001A
:100AC00000220C2119F0B8F900222000082119F0A9
:100AD000D1F92000012126F017FA2000102110F092
:100AE00073FA200003B030BD64000020231A130005
:100AF0004334260010B5040084B04D4828F042F974
:100B000001AB187002040002120E000E5A709870A9
:100B100001992000002219F0C1F920000022FF21D4
:100B200019F0CCF920000022002119F08FF92000E3
:100B30000022002119F094F920000022002119F070
:100B400071F900222000002119F076F9002120001F
:100B500015F076FB200010F0A9F9040018F0E4FB72
:100B60002000344912F054FF2000334912F082FF74
:100B70002F4828F007F902AB187002040002120E89
:100B8000000E5A70987002992000002219F086F920
:100B900020000022FF2119F091F9200000220C21F1
:100BA00019F054F9200000220C2119F059F9200005
:100BB0000022092119F036F9200000220E2119F037
:100BC0003BF900222000092119F054F920000121ED
:100BD00026F09AF9022300222000002126F0A0F935
:100BE00020000C2115F05CFB0321200015F028FBF0
:100BF000124828F0C7F8020403AB120E5A70802284
:100C000018700002000E987003992000520219F02B
:100C100045F9802220007F21520219F04FF98022ED
:100C200020000321520219F0C1F8200004B010BDC9
:100C3000140E0A0064000020FFFFFF3F433426002B
:100C400010B582B010F032F904002D4912F0E0FE28
:100C500020002C4912F00EFF2B4828F093F86B4629
:100C6000020418700002120E000E5A70987000995B
:100C70002000002219F012F90022FF21200019F0B3
:100C80001DF9224828F07EF801AB1870020400021A
:100C9000120E000E5A70987001992000002219F06F
:100CA00021F920000022012119F036F9200000224C
:100CB0000C2119F0ABF9200000220B2119F0C6F825
:100CC000200000220B2119F0CBF8200000220B217C
:100CD00019F0A8F8200000220B2119F0ADF800222D
:100CE0002000082119F0C6F82000012126F00CF997
:100CF0002000102110F068F9200002B010BDC0469D
:100D000064000020FFFFFF3F231A13004334260036
:100D100030B50D0083B03AF04DF9290004003AF0E7
:100D200057F90E4828F02EF8030401AA1B0E537041
:100D300003021B0E9370107001992000002219F01D
:100D40002DF920000022064919F038F92000002270
:100D5000012119F03DF9200003B030BDA2917F00C0
:100D6000CCA9051030B583B001920D003AF022F9FC
:100D7000040029003AF02CF920000199002219F012
:100D80000DF9200000221C4919F018F920000199E2
:100D9000002219F083F820000022332119F08EF888
:100DA00020000199002219F09DF820000022662100
:100DB00019F0A8F820000022012119F0ADF8200058
:100DC0000022142119F022F920000022082119F034
:100DD0003DF820000022082119F042F820000022EE
:100DE000042119F01FF820000022042119F024F832
:100DF000200003B030BDC04664CE0510F0B5CE462D
:100E0000474680B583B01F000E00914610F04EF8A3
:100E1000040018F089FA27222000314912F0B2FDAF
:100E20002000002126F070F8022302220521200074
:100E300026F076F8200010F039F8050018F074FA62
:100E4000284A2800110012F09DFD2800012126F0FB
:100E50005BF800220121280019F00CF828003AF074
:100E6000A9F8804631003AF0B3F840460A990022CA
:100E700019F094F81C4E40463100002219F09EF8FB
:100E800000220221404619F0A3F828003AF092F817
:100E9000494605003AF09CF8144827F073FF020415
:100EA00001AB120E5A700202120E18709A702800CE
:100EB0000199002219F072F8280000220C4919F05B
:100EC0007DF839000A9A2000FFF74CFF002231001C
:100ED00019F074F8200003B0C0BCB946B046F0BDAC
:100EE00064000020FFFFFF3FCCA90510FAF4EC00DE
:100EF000B86E0610F0B5C64600B584B016000F00F7
:100F000040F09CFB0500524912F082FD2800514937
:100F100012F0B0FD0221280040F01AFC3100280038
:100F200040F09AFB9A220021280040F091FD7622A1
:100F30000121280040F08CFD00220021280018F03B
:100F4000BDFF00220021280018F0E6FF424827F0EC
:100F500019FF020401AB120E5A70A0221870000291
:100F6000000E987001992800D20218F097FFA02275
:100F7000FF21D202280018F0A1FF384827F002FF15
:100F8000020402AB120E5A70A02218700002000E6A
:100F9000987002992800D20218F0A4FFA022012123
:100FA000D202280018F0B8FF2D4827F0EBFE02040B
:100FB00003AB120E5A70A02218700002000E987037
:100FC00003992800D20218F0E9FFA0222800254941
:100FD000D20218F0F3FFA02206212800D20218F056
:100FE00035FFA02206212800D20218F039FFA022E6
:100FF00008212800D20218F015FFA022082128009D
:10100000D20218F019FF184900232222280011F0FB
:10101000E9FE8021280009030FF070FF002E12D096
:10102000124B00249846A300210000222800FB5800
:1010300040F07CFC2100434601222800013440F0AE
:1010400075FCA642EFD1280004B080BCB846F0BDC4
:1010500064000020FFFFFF3F2D22180043342600CC
:10106000FAF4EC0044FB0510E507001000450510FC
:1010700010B584B001910C21040012F0FBFC314842
:1010800027F080FE02AB187002040002120E000E60
:101090005A70987002992000002218F0FFFE20007C
:1010A0000022FF2118F00AFF20000022082118F07A
:1010B000ADFF802220000199920218F0EFFE8022FD
:1010C0002000FF21920218F0F9FE80220821200062
:1010D000920218F09BFF1C4827F054FE020403AB59
:1010E000120E5A70C02218700002000E98700399F8
:1010F0002000920218F0D2FEC02220000199920234
:1011000018F0F0FEC02220000321920218F004FF24
:10111000C02220000221920218F098FEC022200076
:101120000221920218F09CFEC022200002219202AD
:1011300018F078FEC02202212000920218F07CFEF6
:1011400004B010BD2D221800FAF4EC0010B584B0E4
:10115000162201912A21040012F014FC1F4827F0E6
:1011600011FE02AB187002040002120E000E5A703B
:10117000987002992000002218F090FE019920003A
:10118000174A18F08BFE174827F0FCFD020403AB4A
:10119000120E5A70C02218700002000E9870039947
:1011A0002000920218F07AFEC02220000221920252
:1011B00018F04CFEC02220000221920218F050FECE
:1011C000C02220000221920218F02CFEC02202212F
:1011D0002000920218F030FE04B010BD2D2218003D
:1011E00004000200FAF4EC0010B5040082B0019291
:1011F00039F0EEFE20000199002218F0CFFE200009
:101200000199002218F04AFE00222000019918F0EE
:1012100069FE02B010BDC046F0B5D6464F46464600
:10122000C0B598B004001BF02DFFFFF7BDFBD4261E
:101230000500A0510022042118F008FE2800002219
:10124000042118F00DFE28000022042118F0EAFD08
:1012500028000022042118F0EFFDA0590A22030003
:10126000FD4911F0BFFDA059E821FFF7DDFB0600A5
:101270000022052118F0EAFD30000022052118F0B7
:10128000EFFD30000022052118F0CCFD30000022D7
:10129000052118F0D1FD00223000032118F0EAFDED
:1012A00080213000C9010FF029FE30000FF0FEFD53
:1012B000050018F039F80C222800E84912F062FB0A
:1012C0002800002125F020FE02230222052128000B
:1012D00025F026FEE24827F055FD6A4603041B0E62
:1012E00010705370128803021B0E17A98B700A80AE
:1012F0002800884639F05EFE0500DA4939F068FEBC
:1013000028001799002218F049FED74F280039000D
:10131000002218F053FE00220121280018F058FE88
:101320003000D82540F09AFF1B226051CB4912F0C3
:1013300029FB6059012141F01BFC6059CB4941F068
:1013400071FC60590C2141F0B5FC6059C84940F06E
:1013500093FF6359C748994627F014FD01AB1870F5
:1013600002040002120E000E5A70987001990022B9
:10137000484618F093FD6359B948994627F002FD95
:1013800002AB187002040002120E000E5A70987020
:1013900002994846082218F0A5FD60590022012153
:1013A00018F0BAFD60590022062118F02FFE63598B
:1013B000B148994627F0E6FC03AB1870020400021E
:1013C000120E000E5A70987003994846002218F0C9
:1013D000E5FDAA4B605919000022994618F0EEFD70
:1013E000655900222800042118F030FD2800002251
:1013F000042118F035FD28000022042118F012FD08
:1014000000220421280018F017FD300033F090FE70
:1014100005009B4933F09AFE280091228F4912F073
:10142000B1FA28000022002118F048FD280000220F
:10143000002118F071FD28000022002118F006FD9F
:1014400028000022002118F00BFD280000220021B6
:1014500018F0E8FC28000022002118F0EDFC28001C
:101460000022032118F006FD00220321280018F0B5
:101470000BFD804827F086FC020404AB120E5A7064
:10148000A02218700002000E987004992800D20261
:1014900018F004FD724827F075FC05AB18700204C3
:1014A0000002120E000E5A70987005992800754AB5
:1014B00018F0F4FC704827F065FC020406AB120E2D
:1014C0005A70A02218700002000E98700699280029
:1014D000D20218F063FDA02228006B49D20218F056
:1014E0006DFDA02228000021D20218F015FDA022D7
:1014F00028000721D20218F089FD23002322634926
:10150000280011F06FFC3000DC2533F011FE60493B
:10151000605133F01BFE60591D22504912F032FA1F
:1015200060590022002118F0C9FC605900220021F6
:1015300018F0F2FC665900223000002118F086FCF9
:1015400030000022002118F08BFC30000022002126
:1015500018F068FC30000022002118F06DFC605982
:101560000022052118F090FC4248665927F00AFC39
:10157000020407AB120E5A70A02218700002000E6F
:10158000987007993000D20218F088FC41486659DB
:1015900027F0F8FB08AB187002040002120E000ED0
:1015A0005A709870089930003B4A18F077FC2C4824
:1015B000665927F0E7FB09AB187002040002120E0F
:1015C000000E5A709870099930002E4A18F066FC87
:1015D0002948665927F0D6FB02040AAB120E5A704E
:1015E000A02218700002000E98700A993000D202F2
:1015F00018F0D4FCA02260593900D20218F0DEFCA9
:10160000A02260590021D20218F086FCA022605965
:10161000D2020C2118F0FAFC6059012134F0A2FB2F
:1016200060598022002133F0CFFE605980220121D1
:1016300033F0CAFE802260590121520033F0C4FE0B
:1016400060590222022134F061FB23002322134956
:10165000605911F0C7FB23E021090010640000204D
:10166000C8D942000445051064CE05101845051080
:10167000244505102D221800FAF4EC0094300610D1
:101680004897051080000500B86E0610410900104B
:1016900038970510FFAF650004000500D11D00104C
:1016A0001BF0F0FCFFF780F9E0260500A0510022B6
:1016B000042118F0CBFB28000022042118F0D0FBF5
:1016C00028000022042118F0ADFB0022280004218C
:1016D00018F0B2FBA059E821FFF7A6F90500002297
:1016E0000A2118F0B3FB280000220A2118F0B8FBE9
:1016F000280000220A2118F095FB280000220A2168
:1017000018F09AFB05210022280018F0B3FBFD48D1
:1017100027F038FB02040BAB120E5A7042461870C9
:101720001B880002000E13809070280039F042FCE4
:101730000600F54939F04CFC30001799002218F0EA
:101740002DFC39003000002218F038FC0022012165
:10175000300018F03DFCE4232800E65039F02AFC64
:10176000E826EA49A05139F033FCA059002139F0AC
:1017700045FDA059E64912F04BF9A059012125F089
:10178000E7FBA359E3489A4627F0FCFA0CAB187024
:1017900002040002120E000E5A7098700C99504606
:1017A000002218F0FBFBA0593900002218F006FCBB
:1017B000A0590022012118F015FC280032F0BAFFD0
:1017C0002022D349050012F0DDF8D34827F0DAFAD9
:1017D00003040DAA1B0E537003021B0E93701070AE
:1017E0000D992800002218F059FB2800002208213A
:1017F00018F00CFC23000A22C849280011F0F2FA64
:10180000280039F0D7FBC649050039F0E1FBC5488F
:1018100027F0B8FA03040EAA1B0E537003021B0E26
:10182000937010700E992800002218F0B7FB390051
:101830000022280018F0C2FB280014F06BFB1BF0FC
:1018400021FCFFF7B1F805000436A05100220C215D
:1018500018F0FCFA280000220C2118F001FB2800E7
:1018600000220C2118F0DEFA002228000C2118F0CA
:10187000E3FAA0598E21FFF7D7F8050000220C21CA
:1018800018F0E4FA280000220C2118F0E9FA2800E8
:1018900000220C2118F0C6FA280000220C2118F0B2
:1018A000CBFA00220821280018F0E4FA9E4827F01D
:1018B00069FA0FAB187002040002120E000E5A7083
:1018C00098700F992800002218F00CFB9921002233
:1018D000280018F017FB944827F054FA020410ABC4
:1018E000120E5A70424618701B880002000E1380B8
:1018F0009070280039F05EFB06008C4939F068FBD7
:1019000030001799002218F049FB390030000022FE
:1019100018F054FB00220121300018F059FB280078
:1019200039F048FBF0268249A05139F051FBA0590B
:10193000774912F06DF8A0590022022118F05CFBE3
:10194000A3597448984627F01DFA11AB1870020489
:101950000002120E000E5A70987011994046002233
:1019600018F01CFB00224946A05918F027FB28005C
:1019700039F020FB06006F4939F02AFB300064493A
:1019800012F046F800220221300018F035FB6648BC
:1019900027F0F8F9030412AA1B0E537003021B0E62
:1019A0009370107012993000002218F0F7FA390085
:1019B0000022300018F002FB28000FF077FA050033
:1019C00017F0B2FC22222800514911F0DBFF280059
:1019D000002125F099FA022328000222052125F092
:1019E0009FFA00220821280018F04EFA280032F051
:1019F000A1FE22227D21060011F0C4FF4E4827F0EF
:101A0000C1F913AB187002040002120E000E5A70D6
:101A1000987013990022300018F040FA474827F0D8
:101A2000B1F914AB187002040002120E000E5A70C5
:101A3000987014993000002218F054FA30000022F7
:101A4000012118F069FA30000022082118F0DEFAAE
:101A500023000A223A49300011F0C4F9300039F06D
:101A6000A9FA3849060039F0B3FA2A4827F08AF96A
:101A7000030415AA1B0E537003021B0E9370107003
:101A800015993000002218F089FA39000022300040
:101A900018F094FA300014F03DFA280032F04AFEB3
:101AA00022227D21050011F06DFF1B4827F06AF905
:101AB000030416AA1B0E537003021B0E93701070C2
:101AC00016992800002218F0E9F9280000220821C0
:101AD00018F09CFA23000A221B49280011F082F911
:101AE000280039F067FA1949040039F071FA0D48F5
:101AF00027F048F9030417AA1B0E537003021B0EAC
:101B0000937025E09BD65A0034450510F04A051025
:101B100064000020FAF4EC00C8D942009D080010CF
:101B200040450510140E0A005BB4FF004445051043
:101B300058450510704505102D2218004334260025
:101B4000010900108C450510C108001090450510D2
:101B5000107017992000002218F020FA0022390096
:101B6000200018F02BFA200014F0D4F918B0E0BCD3
:101B7000BA46B146A846F0BD70B506000D0082B069
:101B8000002800D1AFE0F4202DF0DCF9041E00D1D4
:101B9000A9E0002D09D00300290025C925C325C9C6
:101BA00025C325C925C30A681A6001234022A3540E
:101BB0000232A3544D4BBE32636448233000E252DC
:101BC0000FF074F9A06217F0AFFB494AA06A110048
:101BD00011F0D8FE4748A56A27F0D4F86B460204F6
:101BE00018700002120E000E5A7098700022280021
:101BF000009918F053F90022FF21A06A18F05EF94D
:101C00001021A06A0FF0E0F9A06A41F041FD384AC6
:101C1000E062110011F0B6FE3648E56A27F0B2F82E
:101C200001AB187002040002120E000E5A70987078
:101C300000222800019918F031F90022FF21E06A02
:101C400018F03CF900220021E06A18F065F9E56A15
:101C500000220021280018F0F9F8002200212800B5
:101C600018F0FEF800220021280018F0DBF800220E
:101C70000021280018F0E0F80021E06A14F0E0FAF2
:101C8000022300220021E06A41F010FD032300221C
:101C900001212063E06A41F009FD032300220221B3
:101CA0006063E06A41F002FD002203210123A0638A
:101CB000E06A41F0FBFCE063200000F0EFF9200057
:101CC00000F0A2FC200001F021FA200001F0D2FB7C
:101CD0002000FFF7A1FA0022616BE06A41F018FDD5
:101CE000200002B070BD0024FAE7C0467B147E409D
:101CF00064000020140E0A0070B5041E15D0D8230D
:101D0000D425C058094940F039FD605901210FF030
:101D10005BF96459200018F0FFFD002805D018F089
:101D20002FFE411E200018F013FB70BDF04A051075
:101D300070B50400150082B0002834D0E426805924
:101D4000002932D11D4939F043F9A6591C4827F022
:101D500019F801AB187002040002120E000E5A703E
:101D6000987000223000019918F018F9E823E05823
:101D7000002D20D0290039F02BF9D423E025E0589C
:101D800001210FF0BBF8605901210FF01DF96459D2
:101D9000200018F0C1FD002805D018F0F1FD411E0B
:101DA000200018F0D5FA02B070BD064939F010F9DC
:101DB000A6590548CBE7054DDCE7C046A44505100C
:101DC000726BFF00944505109BD65A00F04A05102F
:101DD000F0B5DE464E4645465746E0B5BFB0050075
:101DE00027F00EFC0400280011F020F9050033F064
:101DF000E1FF0100280033F0FBFF061E42D0484DF2
:101E0000290050F097FD002843D0464B30001900C0
:101E1000984650F08FFD00283ED033784F2B31D1BB
:101E200073784B2B2ED1B678002E2BD18D33E05802
:101E300040F060FF814605A9059650F093F94B46A6
:101E40001B7806000F00002B2AD116ABA022180029
:101E500000219A4609F040FD422206960797A25CAF
:101E600006AB1A724022A25C5A7252462E4B23CB0A
:101E700023C223CB23C223CB23C2002152462000FE
:101E8000FFF756FF3FB0F0BCBB46B246A946A0469E
:101E9000F0BD4223E054F5E742230122E254F1E78A
:101EA000059B4B45D1D01B78002BCED116ABA02281
:101EB000002118009A4609F00FFD06AB9B4642230D
:101EC0005A4606960797E35C30001372039340234B
:101ED000E35C390053720022002308F0CDFF002894
:101EE000C3D06668002E09D0A02352465946606AC6
:101EF000B0470028C1D04223E35C0393039B012B2E
:101F000000D145464B463021084A00950AA80BF0FF
:101F100043F90AA9200000F07BFE0121AEE7C0468C
:101F2000B4450510B0450510B8450510DC45051051
:101F300070B5041E25D0EC23C358002B21D04023BC
:101F4000C35C8B421DD0012B1CD0114A01291CD02F
:101F50000F4B4120EC252154AF3020580D4939F06A
:101F600057F8605901210FF02FF86459200018F03C
:101F7000D3FC002805D018F003FD411E200018F006
:101F8000E7F970BD044A0129E2D1034BE1E7C046FD
:101F900060450510E8450510E445051070B527F0CB
:101FA0002FFBB4230400C0583DF08EFFB823FF225E
:101FB000050002400549E05839F02AF8A369002BD2
:101FC00002D0606AE9B2984770BDC046104605105D
:101FD000F8B527F015FBB0230400C05837F078FDA2
:101FE00066690500002E0BD0A8230421E058676A1B
:101FF0006B1E9D410FF0D0FCE9B202003800B047E3
:10200000F8BDC046F0B583B027F0FAFAA826040060
:10201000042180590FF0C0FC0500A05900281AD0F7
:102020000421002D27D1AC260FF008F9A05917493B
:1020300038F0CEFFA659164826F0A4FE01AB187062
:1020400002040002120E000E5A7098700022300036
:10205000019917F0A3FF2669002E0AD0B023E0589B
:10206000676A37F035FD431E98412A00C1B2380037
:10207000B04703B0F0BD04360EF0FCFFA05905498F
:1020800038F0A6FFA6590448D6E7C04628460510F2
:10209000A2917F00184605109BD65A00F0B5CE4697
:1020A000474680B504008FB0006BFEF723FD002289
:1020B0000721060017F0DEFEFD4826F063FE6F469E
:1020C000030403AD1B0E28706B702D880002000EF8
:1020D000F84BF94AF9493D80B8703000FEF78EFEA2
:1020E00030000EF0E3FE070017F01EF969223800F9
:1020F000F34911F047FC3800002124F005FF0223CA
:1021000000220521380024F00BFF3800FEF798FD6F
:1021100005006922892111F035FC280000220921DF
:1021200017F094FE28000022092117F099FE2800DC
:102130000022092117F076FE28000022092117F05D
:102140007BFE00222800062117F094FEDD492800BE
:10215000FEF7DEFD280038F02DFFA0239846E05062
:10216000D94938F035FF4346E358D848994626F018
:1021700009FE04AB187002040002120E000E5A7021
:10218000987004994846002217F008FF4346002241
:10219000E058CF4917F012FFCE4826F0F3FD05AB0B
:1021A000187002040002120E000E98705A70059A00
:1021B000C9492800FEF7D6FD280032F0EFF8A42523
:1021C00007226051BE4911F0DDFB6059C34AC44982
:1021D00032F0ACF960590022C24932F0EDF863598F
:1021E000C148984626F0CEFD06AB187002040002E6
:1021F000120E000E5A70987006990022404617F091
:102200004DFE6359B348984626F0BCFD030407AA67
:102210001B0E537003021B0E9370107080224046F9
:102220000799920217F03AFE60590022062117F032
:10223000EDFE802260590621920217F0E7FE380079
:10224000FEF7FEFC05006922892111F09BFB2800A6
:102250000022092117F0FAFD28000022092117F0B9
:10226000FFFD28000022092117F0DCFD28000022D4
:10227000092117F0E1FD00222800062117F0FAFDE0
:102280009A492800FEF744FD28000EF00FFE804614
:1022900017F04AF819224046894911F073FB40466D
:1022A000002124F031FE022202230521404624F0C1
:1022B00037FE404638F07EFEAC278D49E05138F0BD
:1022C00087FEE3598348994626F05CFD08AA107002
:1022D000030400021B0E000E5370907008994846CC
:1022E000002217F05BFE834B00221900E0591F000B
:1022F00017F064FE40463EF005F8A8238046E05003
:102300006B48994626F03EFD09AA107003040002AE
:102310001B0E000E5370907009994046FEF716FF91
:102320004B460421E0580EF0A5FE4B46232272498D
:10233000E058230010F056FD280037F03DFAB02594
:102340006E49605137F046FA60595D4911F060FB03
:1023500063596548984626F015FD0AAB18700204CB
:102360000002120E000E5A7098700A994046002220
:1023700017F094FD60590022002117F0CDFD60593F
:102380000022072117F042FE63595048984626F074
:10239000F9FC03040BAA1B0E537003021B0E93706F
:1023A00010700B994046002217F0F8FD6059390073
:1023B000002217F003FE675900223800072117F0AA
:1023C00045FD38000022072117F04AFD38000022A1
:1023D000072117F027FD38000022072117F02CFDF8
:1023E000230023224649605910F0FCFC3000FEF720
:1023F00027FC05003822324911F0C4FA28000022D7
:10240000092117F023FD28000022092117F028FDDB
:1024100028000022092117F005FD280000220921CB
:1024200017F00AFD00220621280017F023FD2800DE
:102430000EF03CFD060016F077FF12223000204916
:1024400011F0A0FA3000002124F05EFD02230222E8
:102450003000052124F064FD30002A49FEF758FCC5
:10246000102130000EF0B0FD274826F08BFC0CAB9D
:10247000187002040002120E000E98705A700C9A26
:1024800022493000FEF76EFCB823E05028003DF0F2
:1024900005FDB4250A49605111F0BAFA605931229C
:1024A00000213DF00DFD00222621605930E0C0469C
:1024B0005BB4FF0038460510404605105446051031
:1024C000640000205C4605106C460510FAF4EC0030
:1024D00010B906109BD65A0074460510681000000B
:1024E000E40C0000820F00002D2218008446051025
:1024F00018460510CCA905100520001094460510BB
:10250000D11F0010A8460510FFAF6500BC4605109E
:102510003DF0D2FC0D48665926F034FC0DAB187026
:1025200002040002120E000E5A7098700D993000CD
:10253000FEF79EFD230023220549605910F052FC4E
:102540000FB0C0BCB946B046F0BDC046FFAF650095
:102550009D1F001010B588B027F052F8040020220B
:102560006946C06D37F0D4FAE368002B04D04022EE
:10257000606AA15C6A46984708B010BD70B527F044
:102580003FF80400406D3DF09FFCFF220500024033
:102590000549A06D38F03CFDA368002B02D0606AAD
:1025A000E9B2984770BDC046C446051010B527F083
:1025B00027F8FFF7A1FB10BD70B5040027F020F845
:1025C0000500200010F032FD33F0F4FB012800D9A3
:1025D00070BDC4B2E86C002810D0802140234900AF
:1025E000EE5C33F023FB8022711EE86C4B425941B4
:1025F000520032F0E9FEE86C12F0A6FB2100280040
:10260000FFF796FCE4E7C046F0B5D6464F4646468F
:10261000C0B5040092B0406BFEF76CFA0500FD48AF
:1026200026F0B0FB6F46030402AE1B0E30707370D1
:1026300036880002000EF84BF84AF9493E80B8701F
:102640002800FEF7DBFB2800FEF7FAFA0600F14847
:1026500026F098FB03AB187002040002120E000E65
:102660005A70987000223000039917F03BFC00224A
:102670003000662117F046FC300002210EF03EFCCF
:1026800023000A22E749300010F0ACFB30000EF0C6
:102690000DFC070016F048FE12223800E24911F046
:1026A00071F93800002124F02FFC022302223800A7
:1026B000052124F035FCDD493800FEF729FBD5481B
:1026C00026F060FB030404AA1B0E537003021B0ECA
:1026D00093701070049AD6493800FEF743FB30001F
:1026E00038F068FCD349206538F072FCD248276D79
:1026F00026F048FB05AB187002040002120E000E13
:102700005A70987000223800059917F047FC002293
:10271000CA49206D17F052FC300038F04BFCC84914
:10272000070038F055FCC74826F02CFB030406AA26
:102730001B0E537003021B0E937010700699380025
:10274000002217F02BFCC04E00223100380017F099
:1027500035FC2800FEF774FA0700BC49FEF7D8FAEA
:10276000380032F0E5FCBA49E06432F0EFFC222296
:10277000E06CAD4911F006F900220021E06C17F081
:102780009DFB00220021E06C17F0C6FBE76C0022E5
:102790003800002117F05AFB38000022002117F002
:1027A0005FFB38000022002117F03CFB38000022BC
:1027B000002117F041FB00220621E06C17F064FBBA
:1027C000A448E76C26F0DEFA020407AB120E5A703A
:1027D000A02218700002000E987007993800D202EB
:1027E00017F05CFB8B48E76C26F0CCFA08AB18704E
:1027F00002040002120E000E5A709870964A3800B9
:10280000089917F04BFB8F48E76C26F0BBFA0204DF
:1028100009AB120E5A70A02218700002000E9870B8
:1028200009993800D20217F0B9FB8C48E76C26F002
:10283000A9FA0AAB187002040002120E000E5A70B8
:102840009870854A38000A9917F0A8FBA022310039
:10285000E06CD20217F0B2FBA0220021E06CD202A1
:1028600017F05AFBA0220821D202E06C17F0CEFB31
:102870000121E06C33F076FA80220021E06C32F026
:10288000A3FD80220121E06C32F09EFD74492300FB
:102890002322E06C10F0A6FA2800FEF7D1F9070019
:1028A000704826F06FFA03040BAA1B0E10705370C9
:1028B000128803021B0E11AEB370328038000EF086
:1028C000F5FA804616F030FD12224046564911F0C6
:1028D00059F84046002124F017FB0223022240460B
:1028E000052124F01DFB40465F49FEF711FA119ABD
:1028F0005E494046FEF736FAA06538003DF0CEFA54
:102900004949606511F084F83F220021606D3DF077
:10291000D7FA00223F21606D3DF0CEFA5148676D35
:1029200026F030FA0CAB187002040002120E000EF2
:102930005A7098700C993800FEF79AFB23222300F6
:102940004B49606D10F04EFA2800FEF779F9070048
:102950004849FEF7DDF9380036F02EFF3249E065D0
:1029600011F056F8444BE06D1900984636F032FFEE
:102970003848E76D26F006FA0DAB18700204000225
:10298000120E000E5A709870002238000D9917F040
:1029900085FA3A48E76D26F0F5F90EAB1870020497
:1029A0000002120E000E5A709870002238000E9924
:1029B00017F098FA00220121E06D17F0ADFA00221D
:1029C0000821E06D17F022FB1B48E76D26F0DAF9CD
:1029D00003040FAA1B0E537003021B0E107093709A
:1029E000380000220F9917F0D9FA254B0022190060
:1029F000E06D9A4617F0E2FAE76D002238000821F0
:102A000017F024FA38000022082117F029FA3800BC
:102A1000002237E0C8D94200CC460510D446051044
:102A2000E4460510AD25001064000020084505109F
:102A3000F0460510FC460510FAF4EC00801C071067
:102A400014470510A2917F00CCA90510344705104A
:102A5000889705102D22180004000500140E0A00A6
:102A6000B92500105BB4FF0044470510544705101A
:102A70007D2500105C4705106C4705104334260087
:102A800064CE0510082117F0CDF938000022082186
:102A900017F0D2F9230023223549E06D10F0A2F996
:102AA0002800FEF7CDF807000EF000FA050016F03A
:102AB0003BFC122228002F4910F064FF002128005F
:102AC00024F022FA022302220521280024F028FA09
:102AD00029492800FEF71CF98146284826F052F9BA
:102AE00010AB187002040002120E000E5A7098709B
:102AF00000224846109917F051FA002251464846E4
:102B000017F05CFA1E4826F03DF9020403021B0E82
:102B1000120E3070B37072701A49119A2800FEF7C5
:102B200021F9082238001849FEF7E4F92066E06C24
:102B3000002817D0402301228021E254490033F0BD
:102B400075F8802201215200E06C32F03DFCE06C0F
:102B500012F0FAF84146E06D36F03CFE0021E06DDF
:102B600036F05EFF12B0E0BCBA46B146A846F0BDF2
:102B700055250010640000209C470510FAF4EC0075
:102B80009BD65A00AC4705109497051070B5040009
:102B90000D0000281DD0C06C00281AD04023E1543D
:102BA0008021490033F042F88022691E4B4259418E
:102BB000E06C520032F008FCE06C12F0C5F8E06DF9
:102BC000012D07D0044936F005FE0021E06D36F0F6
:102BD00027FF70BD0149F6E7B44705106C470510A3
:102BE00070B504000D00002811D0C06C00280ED074
:102BF0008021490033F01AF88022691EE06C4B42B4
:102C00005941520032F0E0FBE06C12F09DF870BDCB
:102C100010B5002806D0006D002803D0002902D08E
:102C200038F0D6F910BD0149FAE7C0460045051055
:102C3000F0B5DE4657464E464546E0B591B007939F
:102C4000219D90468946FDF7FBFF0400682110F0A6
:102C500011FF20000022022117F0F8F820000022C6
:102C6000022117F0FDF820000022022117F0DAF807
:102C700020000022022117F0DFF8200000220121AD
:102C800017F0F8F820000022079917F02BF900221E
:102C90002000662117F036F9200002210EF094F989
:102CA000102120000EF090F920000EF0FFF8060031
:102CB00016F03AFB0E223000D34910F063FE3000CC
:102CC000002124F021F9022302220521300024F002
:102CD00027F9300038F06EF94946070038F078F9E6
:102CE000CA4826F04FF8010403021B0E09AA090E78
:102CF00093701070517038000022099917F04EF946
:102D000038000022C24917F059F941463000079AAD
:102D1000FEF728F80600BF4B002219001F0002939F
:102D200017F04CF930000022052117F08FF8300021
:102D30000022052117F094F830000022012117F03D
:102D400071F800220121300017F076F820000EF013
:102D5000ADF8040016F0E8FA53222000AA4910F05A
:102D600011FE102120000EF02FF9200038F022F97A
:102D70001A99060038F02CF9A44826F003F8030449
:102D80000EAA1B0E537003021B0E937010700E9947
:102D90003000002217F002F900223900300017F04D
:102DA0000DF930002E601B2110F032FE2868002241
:102DB000032117F021F9022300225B420121286838
:102DC00010F0F0FE200038F0F5F81B99060038F0FE
:102DD000FFF88E4825F0D6FF03040DAA1B0E537092
:102DE00003021B0E937010700D993000002217F033
:102DF000D5F800223900300017F0E0F830006E609E
:102E00001B2110F005FE68680022032117F0F4F87A
:102E1000062300225B420721686810F0C3FE2000F1
:102E200038F0C8F81C99060038F0D2F8774825F039
:102E3000A9FF03040CAA1B0E537003021B0E937010
:102E400010700C993000002217F0A8F80022390009
:102E5000300017F0B3F83000AE601B2110F0D8FD41
:102E6000A8680022032117F0C7F8012300220421DB
:102E7000A86810F097FE200035F046FD00221C21C6
:102E8000070010F0D5FC872147223800490010F0D8
:102E900079FD0121380035F045FD802138004900D9
:102EA00035F0B8FD05220321380035F0B3FE5A484D
:102EB00025F068FF0AAB187002040002120E000E23
:102EC0005A709870002238000A9916F0E7FF002225
:102ED000FF21380016F0F2FF00223800079917F0A2
:102EE00001F800229921380017F00CF80022012186
:102EF000380017F011F800220421380017F086F886
:102F000000220021380016F0A1FF00220021380025
:102F100016F0A6FF00220021380016F083FF0022E1
:102F20000021380016F088FF3C4825F02BFF0BAB42
:102F3000187002040002120E000E5A7098700022DF
:102F400038000B9917F010F80022FF21380017F015
:102F50001BF800220121380016F0E8FF00220321AF
:102F6000380016F0EDFF00220321380016F0F2FFC2
:102F7000A02202213800D20216F0D8FFA022FF21A1
:102F80003800D20217F000F88022002138009202A7
:102F900016F00CFF802200219202380016F01AFF72
:102FA000102138000EF010F8022138000EF00CF855
:102FB0000121380035F002FE00220799380035F073
:102FC00051FE059020000DF071FF0400019016F0F5
:102FD000ABF947221C21200010F02AFC87210C228B
:102FE0002000490010F0CEFC209B1F9D013B9B461A
:102FF0005B08994600239A469846094B0FAE039307
:10300000084B069704932EE064000020FAF4EC00CD
:1030100064CE0510CCA905102D22180043342600DB
:10302000F04A0510344805105946504607F058FC40
:1030300001001B394ED4D82900DDD82138000022E8
:1030400010F0F6FB209B28689C424CD00221002205
:1030500016F0D2FFFF239C460E23FF33E1449C462B
:10306000A0460435E2445946484607F039FC0700BB
:10307000019837F09FFF0399040037F0A9FF224819
:1030800025F080FE3070030400021B0E000E7370EA
:10309000B07000222000316816F080FF200000226E
:1030A000029916F08BFF3A00200004992C6037F04B
:1030B000AFFF3621286810F0ABFC43462F685C1C3C
:1030C000002BB1D102213800002210F0B1FB012108
:1030D0002868BCE738000021002210F0A9FB209BE3
:1030E00028689C42B2D100220321069F16F084FF7B
:1030F0001D9B059A1F601E9B1A6011B0F0BCBB4659
:10310000B246A946A046F0BDFAF4EC00F0B50400C2
:1031100091B0806BFDF7EEFC05000022082116F04F
:1031200095FE28000022082116F09AFE28000022B1
:10313000032116F077FE28000022032116F07CFE02
:1031400000220221280016F095FE28000DF0AEFEA8
:10315000060016F0E9F816223000604910F012FC63
:103160003000002123F0D0FE02230222052130008E
:1031700023F0D6FE300037F01DFF5949070037F025
:1031800027FF584825F0FEFD010403020CAA1B0E80
:10319000090E93701070517038000C99002216F0CF
:1031A000FDFE00223800504916F008FF4F4825F078
:1031B000E9FD03040BAA1B0E537003021B0E937050
:1031C00010700B9A30004A49FDF7CCFD0600002232
:1031D000484916F0F3FE30000022072116F036FEB3
:1031E00030000022072116F03BFE300000220121B2
:1031F00016F018FE00220121300016F01DFE3E4898
:1032000025F0C0FD09AB187002040002120E000E7A
:103210005A7098700DAB07930323069323006C3309
:103220000593043B0493043B0393344B344E0293C5
:10323000344B28000093344A099B34490196FFF728
:10324000F7FC80227F23606E0021524235F05EFC45
:10325000A16E0022606E35F0ADFD2D4825F092FD87
:103260000AAB187002040002120E000E5A70987019
:10327000230094330793052306932300803305939B
:10328000043B0493043B0393224B28000293224BFC
:10329000224A019322490A9B0096FFF7C9FC782233
:1032A0000023A06F0021524235F030FC7822E16FFC
:1032B0005242A06F35F07EFD606E02210DF084FE5B
:1032C000606E10210DF080FEA06F02210DF07CFEDB
:1032D0001021A06F0DF078FE11B0F0BD6400002049
:1032E00038480510FAF4EC00943006109BD65A00CA
:1032F0004C480510CCA90510C8D9420074480510E7
:103300006C6705107C480510544805106848051086
:103310005BB4FF00A4480510AC48051084480510B4
:103320009848051010B526F06BF9C023040004215D
:10333000C0580EF031FB236A0100002B01D0606AF7
:10334000984710BD10B526F05BF9BC23040004219A
:10335000C0580EF021FBE3690100002B01D0606A28
:10336000984710BDF0B5CE46474680B585B001936D
:10337000894690460C9D0DF099FD040015F0D4FF90
:1033800024222000354910F0FDFA2000002123F00E
:10339000BBFD022302220521200023F0C1FD2000F5
:1033A0000DF084FD060015F0BFFF30002C4AD72138
:1033B00010F0E8FA3000012123F0A6FD00220121DF
:1033C000300016F057FD300037F0F4FD4946070095
:1033D00037F0FEFD234825F0D5FC010403021B0E47
:1033E00003AA090E937010705170380003990022DF
:1033F00016F0D4FD002238001B4916F0DFFD300026
:1034000037F0D8FD4146060037F0E2FD174825F0B9
:10341000B9FC010403021B0E02AA090E937010707E
:10342000517030000299002216F0B8FD00223000E1
:103430000F4916F0C3FD20003CF064FF019928609D
:10344000FDF784FE232228680E9B0D990FF0CAFC1D
:1034500005B0C0BCB946B046F0BDC046640000200F
:10346000FFFFFF3FFAF4EC0064CE0510A2917F004D
:10347000CCA90510F0B5DE4657464E464546E0B5A8
:10348000040093B0C06BFDF735FB0500CB4825F079
:1034900079FC6F46030405AE1B0E307073703688DE
:1034A0000002000EC64BC74AC7493E80B8702800CC
:1034B000FDF7A4FC2800FDF7C3FB0600C349FDF798
:1034C00027FC30000DF0F2FC060015F02DFF19224C
:1034D0003000BF4910F056FA3000002123F014FDEF
:1034E000022330000222002123F01AFD00220721CE
:1034F000300016F0C9FCB74825F044FC06AB187044
:1035000002040002120E000E98705A70B24B069A16
:10351000190030009B46FDF725FCC823E050AF485A
:1035200025F030FC07AB187002040002120E000EEA
:1035300098705A70AA4B079A190030009846FDF708
:1035400011FCC423E0502800FDF77AFB06009B48DD
:1035500025F018FC08AB187002040002120E000ED1
:103560005A7098709F4BA04A01932300BC339F4927
:10357000300000930294089BFFF7F4FE30000DF03A
:1035800095FC070015F0D0FE01223800904910F09C
:10359000F9F9974825F0F6FB09AA10700304000218
:1035A0001B0E000E5370907009993800002216F01F
:1035B00075FC0022FF21380016F080FC8D4825F0B4
:1035C000E1FB03040AAA1B0E537003021B0E937047
:1035D000894B107001932300C033884A884930001A
:1035E000009302940A9BFFF7BDFE2800FDF728FB1D
:1035F0000600724825F0C6FB0BAB187002040002EF
:10360000120E000E5A709870002230000B9916F0BE
:1036100069FC00223000662116F074FC7949300004
:10362000FDF776FB300037F0C5FCCC277649E0513A
:1036300037F0CEFCE35975489A4625F0A3FB0CAB56
:10364000187002040002120E000E5A7098700022C8
:1036500050460C9916F0A2FC00226D49E05916F074
:10366000ADFC00220321E05916F0BCFC300037F01D
:10367000A1FC6849060037F0ABFC674825F082FBE7
:10368000010403021B0E0DAA090E937010705170F5
:10369000300000220D9916F081FC00225F493000B5
:1036A00016F08CFC2800FDF7CBFA06000DF0FEFBAF
:1036B000050015F039FE12222800454910F062F984
:1036C0000021280023F020FC0223022205212800EB
:1036D00023F026FC52492800FDF71AFB81464B488F
:1036E00025F050FB0EAA1070030400021B0E000E02
:1036F000537090700E990022484616F04FFC00223D
:103700004849484616F05AFC2C4825F03BFB01047A
:1037100003020FAA1B0E090E9370107051700F9ABE
:1037200041492800FDF71EFB0E2230003F49FDF7FE
:10373000E1FBD023E050143BE058002802D00421E4
:103740000DF098FCC023E058002802D004210DF0B1
:1037500075FDC423E558002D12D002227C3BE254B3
:103760001E4825F00FFB11AB187002040002120E68
:10377000000E98705A7041462800119AFDF734FDEA
:10378000C823E558002D12D001227F3BE254114896
:1037900025F0F8FA10AB187002040002120E000EA9
:1037A00098705A7059462800109AFDF71DFD13B005
:1037B000F0BCBB46B246A946A046F0BDFFAF6500CF
:1037C000B0480510B8480510C8480510D448051081
:1037D000640000205BB4FF00E44805109BD65A004B
:1037E000F448051045330010FC4805101C4905102D
:1037F00043342600C8D9420025330010284905105B
:103800004C4905106449051078490510FAF4EC009C
:103810009430061080490510A2917F00CCA90510B4
:10382000A849051064CE0510B8490510B4970510D5
:1038300030B5D0248025240685B00A20A56106F085
:10384000D1FA6420656106F0CDFA6A46054B152170
:103850009381012303AA0093034801330CF07EFEF9
:1038600005B030BDF90500003811002070B5D02436
:1038700080252406A5610A2006F0B4FA656164205B
:1038800006F0B0FA70BDC04670B584B06A46032336
:103890000126D3720B22104D03AC6A441521280077
:1038A0000096023B0CF05AFE22000423152128004A
:1038B00000960CF05DFEF0212378607809011B0270
:1038C000064A0B4003431360A3781B020B40E178C8
:1038D0000B43536004B070BD3811002070180020F5
:1038E000024B1A685B6802800B80704770180020DA
:1038F00070B584B06A460223012693730F250E2209
:10390000094C6A446D44152120000096013B0CF0DF
:1039100025FE01232A001521200000960CF028FE28
:10392000287804B070BDC04638110020F0B5CE46EE
:10393000474680B5D02483B0802590461E006A4655
:103940002A23814624066D0113710F00012201A96B
:10395000A561204850F080FC4B466A465BBA9380D4
:1039600001A9022265611B4850F076FC43466A4675
:103970005BBA938001A902226561164850F06CFC85
:103980002B236A4601A9137112480122A56150F048
:1039900063FC6B467FBA9F8001A9022265610D48D6
:1039A00050F05AFC6B4676BA9E8001A902226561EE
:1039B000084850F051FC2C236A4601A913710548B0
:1039C0000122A56150F048FC03B0C0BCB946B04626
:1039D000F0BDC04600000440104B10B51A68002A24
:1039E0001ADB0123A02193400D4AC90588580342E0
:1039F00012D08B5010220B481100C36819401A4294
:103A0000FAD1094B094A19701468094B11601868FA
:103A10001960002C00D0A04710BDC04658100020EF
:103A20001C04000000000440EF580320BC57012094
:103A3000B8570120F8B507000E001C001500FFF76D
:103A400075FFD02380221B0652015A61ED1BA21B79
:103A5000013501326A4306995200024850F0FCFBDE
:103A6000F8BDC0460000044010B5134C2368002B7D
:103A700001DB012010BD00200CF084FD002815DBC7
:103A80000123A02183400D4AC90520608B500C4AB8
:103A90000C2013600B4905F0BBFB01210C2005F045
:103AA0007FFB2168084809F093FEE2E7074809F028
:103AB0000BFE0020DEE7C046581000201C0400006A
:103AC00014240050D9390010C04A0510844A05104A
:103AD000F8B5224D2C68002C3BDB214E3478002CAD
:103AE00033D1069C002C03D0824201D38B4204D2F6
:103AF0001C4809F0E9FD0020F8BD171A5C1AFFF711
:103B000015FFD02380221B0652015A612B68164AEA
:103B1000D9021140154A07980A4315490137086030
:103B2000144908980134086001213170A021C905A9
:103B30008C467C4306999B01634419600E496400DE
:103B4000596001209C60DA60D6E70C4809F0BCFDA2
:103B5000D1E70B4809F0B8FDCDE7C046581000206A
:103B6000EF580320784B0510FD7F00FF110009007E
:103B7000BC570120B857012008000440344B051001
:103B8000F44A0510014B1878C0B27047EF58032073
:103B9000F0B5DE4657464E464546D024E0B5802572
:103BA0002406ED0083B01420A56106F01BF96561C1
:103BB000782006F017F96A4636238025D3716B46C4
:103BC0006D01D91D0122A561FE4850F045FB6A46F2
:103BD0007023D3716B460122D91D6561F94850F0FD
:103BE0003BFB6A463A23D3716B460122D91DA5617E
:103BF000F44850F031FB6A460523D3716B4601222D
:103C0000D91D6561EF4850F027FB6A46B223D37196
:103C10006B460122D91DA561EA4850F01DFB0C231B
:103C200098466B464246D91DDA71E64865610B3A03
:103C300050F012FB6B464246D91DDA71E1486561CE
:103C40000B3A50F009FB6A460023D3716B46012200
:103C5000D91D6561DB4850F0FFFA33266B4601221F
:103C6000DE71D91D6561D74850F0F6FA6B46012226
:103C7000DE71D91D6561D34850F0EEFA6A46B7236C
:103C8000D3716B460122D91DA561CE4850F0E4FAEC
:103C90006A463523D3716B460122D91D6561C94837
:103CA00050F0DAFA6A46BB23D3716B460122D91D64
:103CB000A561C44850F0D0FA6A461923D3716B4607
:103CC0000122D91D6561BF4850F0C6FA6A46C0237B
:103CD000D3716B460122D91DA561BA4850F0BCFAD8
:103CE0006A462C236946D371073101226561B548C4
:103CF00050F0B2FAC2236A466946D37107310122F5
:103D0000A561B04850F0A8FA01236A466946D3710C
:103D1000073101226561AB4850F09EFAC3236A4621
:103D20006946D37107310122A561A64850F094FA83
:103D300012236A466946D371073101226561A148A1
:103D400050F08AFAC4236A466946D37107310122CA
:103D5000A5619C4850F080FA6946202207310A701C
:103D6000984865611F3A50F077FAC62369460122E8
:103D7000CB719448A561073150F06EFA0F23694664
:103D80000122CB718F486561073150F065FAD0216F
:103D90008946694648460122C871A56107318948AC
:103DA00050F05AFAA42369460122CB718548656117
:103DB000073150F051FAA12369460122CB718148A5
:103DC0006561073150F048FAE02369460122CB7162
:103DD0007C48A561073150F03FFA69464846012208
:103DE000C87165610731774850F036FA684604219A
:103DF00007300170012201006561724850F02CFA11
:103E00000D276846C77107300100012265616D48C2
:103E100050F022FA11266846C671073001000122CF
:103E20006561684850F018FA6B461320D91DD871A7
:103E300001226561634850F00FFA6A462B23D37163
:103E40006B460122D91D65615E4850F005FA3F239B
:103E50009B466B465A46D91DDA715A4865613E3A0F
:103E600050F0FAF96A465423D3716B460122D91DEA
:103E70006561544850F0F0F96A464C23D3716B46A3
:103E80000122D91D65614F4850F0E6F96A461823B2
:103E9000D3716B460122D91D65614A4850F0DCF9A7
:103EA0006B46DF716F46073739000122656145486F
:103EB00050F0D2F96F460B2307373B7001223900CF
:103EC0006561404850F0C8F91F276B460122DF7139
:103ED000D91D65613B4850F0BFF923239A466B46D4
:103EE0005246D91DDA7137486561223A50F0B4F96B
:103EF0006A46E123D3716B460122D91DA561314881
:103F000050F0AAF96B464A46D91DDA712D48656111
:103F1000CF3A50F0A1F96B460421D97169460122CC
:103F200065610731274850F097F9434669460122F9
:103F3000CB7124486561073150F08EF96946012242
:103F4000CE7120486561073150F086F9694613202B
:103F50000122C871656107311A4850F07DF9694640
:103F60002C230122CB7117486561073150F074F999
:103F70006B4659460122D9711248D91D656150F02E
:103F80006BF9442369460122CB710E486561073104
:103F900050F062F9512369460122CB7109486561ED
:103FA000073150F059F92F2369460122CB7105489A
:103FB0006561073150F050F96B460122DF71D91D60
:103FC00002E0C046000004406561234850F044F917
:103FD0006B460122DF71D91D65611F4850F03CF925
:103FE0006B462022D91DDA711B4865611F3A50F0DB
:103FF00033F96B465246D91DDA7117486561223A8A
:1040000050F02AF96A462123D3716B460122D91D4B
:10401000A561114850F020F96B460122DE71D91DCF
:10402000A5610D4850F018F9782005F0DBFE6A46CE
:104030002923D3716B460122D91DA561064850F092
:104040000BF9142005F0CEFE03B0F0BCBB46B2461F
:10405000A946A046F0BDC04600000440F0B5C646E3
:104060000F2000B505F06AF8D024802324061B0237
:10407000A3620A2005F062F80C2005F05FF88023A7
:10408000DB006362802302255B01636200210A205A
:1040900005F02EF800210C2005F02AF8A64E00218C
:1040A0000A2005F015F800210C2005F011F8300069
:1040B000A2490CF065F8A24B726807271D603368AF
:1040C000CF267B409F4933400B609F4B2A401A60AC
:1040D00001210E2004F0CEFF01210B2004F0CAFFC5
:1040E00001210D2004F0C6FF00210E2005F000F88C
:1040F00000210B2004F0FCFF00210D2004F0F8FF4C
:1041000000210E2004F0E4FF00210B2004F0E0FF6A
:1041100000210D2004F0DCFF0221192004F0AAFF89
:104120000221182004F0A6FF0021192004F0E0FF6E
:104130000021182004F0DCFF0021192004F0C8FF42
:104140000021182004F0C4FF96218048890106F060
:1041500087F90122002308217C4806F011FA162075
:1041600004F0ECFF8023DB0363610021636216200F
:1041700004F0BEFF0021162004F0AAFF172004F06F
:10418000DDFF80231B04A36202211C2004F072FFC8
:1041900002211D2004F06EFF00211C2004F0A8FF66
:1041A00000211D2004F0A4FF00211C2004F090FF3A
:1041B00000211D2004F08CFF6549664806F050F987
:1041C000012200230821634806F0DAF9012004F0F7
:1041D000B5FF65620021012004F08AFF0021012063
:1041E00004F076FF5C495D480CF090F90321022051
:1041F00004F040FF0321032004F03CFF00210220D3
:1042000004F076FF0021032004F072FF0021022059
:1042100004F05EFF0021032004F05AFF504951488A
:104220000CF074F90321082004F024FF0321092075
:1042300004F020FF0021082004F05AFF002109208B
:1042400004F056FF0021082004F042FF002109205D
:1042500004F03EFF062004F071FF072004F06EFF1B
:104260004023A362403363620021072004F040FF33
:104270000021072004F02CFF002004F05FFF012341
:1042800000216362002004F033FF0021002004F0CD
:104290001FFF0121122004F0EDFE0121132004F084
:1042A000E9FE0121142004F0E5FE112004F046FF90
:1042B00080239B02636100216362122004F018FFD7
:1042C0000021132004F014FF0021142004F010FF3B
:1042D0000021112004F00CFF0021122004F0F8FE50
:1042E0000021132004F0F4FE0021142004F0F0FE5D
:1042F0000021112004F0ECFE1B4B1C4998461800CD
:104300000BF03EFF43461A4A5B681560424612684E
:104310002B407A401640174A05201660164A136053
:1043200004F00CFF2023002201210520A36204F0E9
:10433000BBFE80BCB846F0BD00000440000E27075D
:104340000430044000100440042004400080034076
:1043500080841E000040034040420F0030110020C6
:10436000801A06003811002000C003400024F40029
:1043700004F0034000D0034004E00340044B01007C
:1043800010B5180009F024FA72B6C046FDE7C04621
:10439000B04B0510044B0A0010B50100180009F0DD
:1043A00017FA72B6C046FDE7CC4B051010B50148B0
:1043B000FFF7E4FFF04B0510080010B5002901D00D
:1043C000FFF7DCFF0048FBE7004C0510F0B5DE46C8
:1043D00057464E464546E0B5431E83B00A3316D8CD
:1043E000072306001A0008363240334200D1C2E0EB
:1043F0001300093BB3420AD31030861A01F074FF50
:10440000674B35009A461B68002B31D115E001F04F
:104410006BFF634B9A461B68002B0CD003F07CFCAF
:104420000024FFF7C3FF200003B0F0BCBB46B24638
:10443000A946A046F0BD002500260720594B1A00CA
:104440001900184200D092E00020574C60602160B3
:10445000564CA44607246344A343544618609A1A52
:10446000586023600B60524B4A601A60514B1A60CF
:10447000002DD3DB002ED1D04E4B9B461B68B342A0
:10448000CCD3494F474B3D6898469D4203D34A4B96
:1044900043449D4203D9F6214848FFF77BFF6B68F0
:1044A000B34215D2454B0193434B434499460CE02C
:1044B000444501D34C4503D9FC210198FFF76AFF1D
:1044C00063682F002500B34202D22C68002CEFD184
:1044D00053461B68AB42A1D03C680834444535D3F1
:1044E000354B43449C4231D82B683B606B68B342E8
:1044F00036D39A1B102A0AD9AB1998465B0747D1C5
:1045000043465A6042463B68136033003A605A465D
:1045100059461268D21A0A6025490868824200D2B8
:104520000A608022120613436B600023244A2B602A
:1045300013680133136003F0EFFB630700D172E7E8
:104540005E211E48FF31FFF725FF6CE783211B48E2
:104550004900FFF71FFF2B683B606B68B342C8D26E
:10456000872116484900FFF715FF6B68C1E7DA1D80
:104570008243110068E701F0B7FE094B35009A4607
:104580001B68002B00D158E7002E00DB74E745E7DD
:1045900018210A48FF31FFF7FDFE6A68921BAFE75A
:1045A00038570120D4570120A0580320F8FF0000FD
:1045B0007058032060580320FFFF0000104C0510C6
:1045C0007C580320F8B5002821D03B4E0838040061
:1045D0000700B04203D3394BF318984205D9B821EC
:1045E000374D49002800FFF7D5FE6368002B0FDA2E
:1045F0002268002A18D0324DB92128004900FFF75F
:10460000C9FE6368002B02DA2268002A0CD0F8BDCC
:1046100072212B4DFF312800FFF7BCFE2368002BD1
:10462000EAD16368002BF2DA5B005B08636001F09B
:104630005BFE244962680B689B180B6022490B00E3
:104640001D001B689C42FBD88D420CD0B54204D3A0
:104650001A498C466644B54205D919481B49FFF7EB
:1046600099FE62682B686968681884420DD0A118A9
:104670008B421AD02360BD4200D02F60144A1368C9
:104680000133136003F048FBC1E75218A9186A60B0
:104690008B42F3D10F492F00096899420AD059681B
:1046A0001B688A187A603B60E5E70A490968994205
:1046B000F5D1DFE72B60E1E7D4570120FFFF0000D1
:1046C000104C051060580320A0580320060200007B
:1046D00080580320385701207047C0460000000072
:1046E0000BA10CC9126892009B581868203080F307
:1046F0000988022080F31488BFF36F8F3FBCAE4659
:1047000008BC04BC62B61847C046C046C046C04696
:10471000000000D028570120D0231B061A6DD207B5
:1047200004D501219A6D1A6D1142FBD1D023FF22CD
:104730001B061A658022024B52051A607047C0465C
:1047400004ED00E000000000000000000000000098
:10475000EFF309811AA00CC8106880001B181868B4
:1047600020390160F0C144464D4656465F46F0C1CF
:10477000146E556E566F176F3039F0C1106808B55A
:1047800072B601F087FE62B60CBC11680868103082
:10479000F0C8A046A946B246BB4680F309880D2260
:1047A00012073038F0C81466556656671767F0C8A8
:1047B0001847C046C046C046C046C046C046C04670
:1047C000000000D02857012010B504F0AFFBC04610
:1047D00010B502F0F1FF040001F04AFE002803D0FA
:1047E0008022034B52051A60200003F0BBFC10BD71
:1047F00004ED00E010B58024031F64041C60043B3A
:1048000019600349043B1960143B40381A6010BD1D
:10481000C94700108022044B52051A60BFF34F8F26
:10482000BFF36F8F7047C04604ED00E0EFF31080D8
:1048300072B6704780F310887047C046D0231B06BD
:104840001B6810B5834204D0D02300221B065A6592
:1048500010BDFD2102484900FFF79CFDF4E7C0466A
:10486000A44C0510002310B5084A094C052023600C
:10487000136004F0D7F8FA21890006F031F8054BEF
:10488000013818600723236010BDC04618E000E01F
:1048900010E000E014E000E070B5224B1A78D0235D
:1048A0001B061B689A4230D0FF231F4A1B04116865
:1048B0000E200B4313601D4905F004FD0B201C491D
:1048C00005F000FDD023FF221B061A651A6DD207E2
:1048D00004D501219A6D1A6D1142FBD1D0252D0608
:1048E0002C68FF210F34200004F0A0FE20001149A5
:1048F00004F08EFC0121200004F052FCFFF7F0FED2
:10490000286801F0C7FD04F011FBFFF7ABFFFF23A0
:10491000054A1B0611680F200B431360064905F07A
:10492000D1FCC1E75C10002020ED00E051470010F1
:10493000D946001019470010D147001010B572B6C3
:10494000FFF7AAFF10B5114C2378FF2B04D0682184
:104950000F48FF31FFF71EFD0E2004F05FFB0F2014
:1049600004F05CFB00232370D0231B061B68002B84
:1049700006D105F0D3FC074805F046FDFFF78CFF94
:10498000B72103484900FFF705FDF2E75C1000205E
:10499000A44C05103D49001010B50A4B1B78FF2BA5
:1049A0000CD0EFF30580002805D0D0231B061B6830
:1049B0004000C01810BD02F0B1FBFBE7D0231B067E
:1049C0001868F7E75C10002030B504000D0083B0D4
:1049D000EFF30583DBB2002B2AD12368002B2ED006
:1049E0001A4A1278FF2A1BD0BFF35F8F00221A6089
:1049F00085F31088164A174B944618682368634459
:104A00009A105C2B0AD8012301215B42914000934C
:104A10000122002300F00EF903B030BD183AF2E78E
:104A2000BFF35F8F00221A6085F3108820BFF3E781
:104A300009480A49FFF7AEFC2368002BD0D1F521C5
:104A400005488900FFF7A6FC2368C9E75C10002031
:104A500000FFFF2F5C580320A44C0510D303000077
:104A60000A001C4910B58C46036882B063449C1050
:104A70005C2B00D9183C184B1B78FF2B20D0012150
:104A8000A14040BF0368BFF35F8F00241C6082F326
:104A90001088EFF30583114ADBB21068002B03D1B5
:104AA00000F064F902B010BD01AA019400F0C4F94D
:104AB000019B002BF6D08022094B52051A60F1E7CA
:104AC00040BF0368BFF35F8F0021196082F3108835
:104AD000E8E7C04600FFFF2F5C1000205C58032071
:104AE00004ED00E0F0B5C64600B506000F00140066
:104AF0001D0082B0EFF30583DBB2002B35D13368A4
:104B0000002B39D0384B1B78FF2B3DD005F07EFAB7
:104B100022002B00121A8B4101213448494280188F
:104B200059413368984600293EDC39D0BFF35F8F86
:104B300000234246136087F310882D4B5A6A954232
:104B40000CD980222B4B52051A60BFF34F8FBFF355
:104B50006F8F002002B080BCB846F0BD9B6A012078
:104B6000A342F7D29542F5D1EBE723482349FFF75B
:104B700011FC3368002BC5D11F482149FFF70AFCFF
:104B8000194B1B78FF2BC1D13368BFF35F8F002215
:104B90001A6087F310882000290005F09FF9D9E7F3
:104BA000FA239B009842C1D3FA220023920005F019
:104BB000BDFE031EBAD0BFF35F8F002241460A60DC
:104BC00087F310880F49104A8C4610683268624497
:104BD00096105C2A00D9183E01210093B1400023B1
:104BE000012200F027F8A8E75C10002018FCFFFF66
:104BF0000040054004ED00E0A44C0510390400001D
:104C00003A04000000FFFF2F5C58032010B500F0AD
:104C100005F8014B186010BD5C58032010B5182032
:104C2000FFF7D4FB041E03D0002308C000F010F9E6
:104C3000200010BDF0B5C64606000D0090461F00CE
:104C400000B5002800D16DE080235B049D4251D265
:104C5000002D2CD002F070FA002817D1069B002BF3
:104C600051D101F041FB346823002B40002F47D184
:104C7000002B05D04346002B02D02300AB4333600A
:104C800003F04AF8200080BCB846F0BD01F02CFBD0
:104C9000346823002B40002F0FD1002BEAD1069B54
:104CA000002BEDD041464B1E9941090611E04A21E7
:104CB0002D48FF31FFF76EFBCCE79D42DAD0069B13
:104CC000002BDDD0434680215A1E9341C9041B06A8
:104CD0001943069A2943301D01F08AFF03F01CF89E
:104CE000002837D003F08EFA0400830120D5240277
:104CF000240AC7E7A4211C484900FFF74BFBA9E79A
:104D00009D42BDD1B6E7A62117484900FFF742FBF7
:104D100001F0EAFA346823002B40002F20D1002B49
:104D2000A8D1BFE748211048FF31FFF733FB8BE7DD
:104D300002F0BAFC346823002B40002F0DD1002B69
:104D400005D04346002B02D02300AB43336002F072
:104D500091FDCCE702F08EFCC4E79D42F7D1F0E76D
:104D60009D42AFD186E7C046444D0510F0B54E4692
:104D70004546DE465746E0B506000D0083B00028E4
:104D80004BD080235B049D4242D237000C37019701
:104D900001F0AAFA336834691D433560A7422CD06C
:104DA000002399468023DB04984680235B049B46BE
:104DB00080239B049A460FE000290AD059460A42F4
:104DC00002D04A461A4391465146294302F0F4FF65
:104DD0003568019BA3420ED0200029004746026897
:104DE000646813021B0A19403A42E5D08B42E5D0B1
:104DF000019BA342F0D14B469D43356002F08CFFEE
:104E0000280003B0F0BCBB46B246A946A046F0BDA0
:104E100004480549FFF7BEFAB7E702480349FFF720
:104E2000B9FAAEE7444D051033020000320200002B
:104E300010B5FFF79BFF10BD10B5044C13000A001E
:104E40000100200003F04AFC10BDC046314E0010A6
:104E50000300083301224360C36003610023524210
:104E6000826003607047C046002303617047C046FC
:104E700043689A684B608A60516099600368086172
:104E8000013303607047C046030030B50D68083336
:104E90006A1C0DD01C005B681A68AA42FAD94B60E4
:104EA000996003688C60013361600861036030BD04
:104EB00004696368F3E7C0460369416882688A60F1
:104EC00051605968814205D000220261186801389A
:104ED000186070475A60F7E770B51600026C04005E
:104EE000856B002A06D1066801350020002E25D0EA
:104EF000A56370BD002E0ED1406806F0F3FC636818
:104F0000226C01359B18A2686360934201D3236829
:104F100063600020ECE7C06806F0E4FC226CE36804
:104F200051429B1A2268E360934202D2A3685B1845
:104F3000E360022E07D000200135D9E7A06802F017
:104F40008FFAA660D4E7002DF5D00020D0E7C04648
:104F500070B505000E00002840D0030C0A0C002B91
:104F600030D1002A42D1300068430300493335D89C
:104F70004830FFF72BFA041E34D00300002E33D143
:104F80002360E563266402F08FFB216CE36B2268EB
:104F90004B43D018A06000205B1A6260D218E26018
:104FA000FF234422A0632000A3540132A3541030F5
:104FB000FFF74EFF20002430FFF74AFF02F05AFCB3
:104FC000200070BD002A09D1A8B2B2B2424389B212
:104FD0009BB24B43120C9B181B0CC4D005480649CE
:104FE000FFF7D8F90024EBE74833C9E7131C011C8D
:104FF000EAE7C046CC4D05102D020000F8B5CE46BC
:105000004746040080B591460F001D00002850D08F
:10501000002938D0022D0FD002F0CEFBA26BE36B3B
:1050200080469A4213D30026404603F09BF8300096
:10503000C0BCB946B046F8BDE36B012B03D029488C
:105040002949FFF7A7F902F0B7FB8046A36B452378
:10505000E65C2A0076B239002000A36BFFF73CFF24
:10506000731C04D1636A002B15D10126DCE701F023
:10507000F9F98642F9D27F2E2FD04523013676B238
:10508000E6540126D0E7036C002BC3D0154817491E
:10509000FFF780F9BEE72000243001F063FE00280E
:1050A000E3D04B46002BE0D001234A460126136093
:1050B000BAE70C4E0D493000FFF76CF930000A4991
:1050C000FFF768F902F078FBA26BE36B80469A4227
:1050D000BDD30026022DA7D1B9E702480449FFF746
:1050E00059F9CAE7CC4D05109B0400009A04000052
:1050F00027050000F8B504000E00002847D0036C17
:10510000002B1AD12368002B1FD002F055FBA36B94
:10511000E26B050000279A420AD94522A75C0133B9
:105120007FB2A3637B1C1AD1636A002B23D10127B2
:10513000280003F017F83800F8BD1A4D1A49280066
:10514000FFF728F92368002BDFD1A368002BDCD000
:10515000144DAA212800C900FFF71CF9D5E701F07A
:1051600081F98742E3D27F2F17D0452301377FB2E1
:10517000E7540127DCE72000243001F0F3FD00288C
:10518000D5D0002ED3D0012301273360D0E7054DC1
:1051900005492800FFF7FEF8DBE702480349FFF75F
:1051A000F9F8E2E7CC4D05104B050000D2050000F0
:1051B000F0B54746CE4680B585B0041E88460192BC
:1051C00000D14AE14346002B00D138E101F0B4FFA1
:1051D000002803D1019B002B00D039E102F064FAD2
:1051E000A56B002D00D03EE1019B002B00D1C9E052
:1051F000260002A801F028FE4427243602F03AFBDC
:1052000001F072F802F050FAE35D5BB2013301D1B4
:105210000023E3554522A35C5BB2013301D1002397
:10522000A35402F027FB01A902A801F019FE0028EF
:1052300052D102F039FAA36B002B00D1AAE002F0A0
:1052400019FB02F031FA4523E55C213B99466DB22A
:10525000A144002D05DC13E0013DEAB26DB2002A45
:105260000ED0636A002B0BD0484601F07BFD00286E
:10527000F2D0013D01F048FFEAB26DB2002AF0D150
:105280004523FF22E25402F0F5FA02F00DFA44231E
:10529000E55C343B99466DB2A144002D05DC13E07A
:1052A000013DEAB26DB2002A0ED02369002B0BD06B
:1052B000484601F057FD0028F2D0013D01F024FFDF
:1052C000EAB26DB2002AF0D14423FF22E25402F088
:1052D000D1FA02F021FD4BE002F0E6F94523E55C4E
:1052E0006DB2002D05DC13E0013DEAB26DB2002A7B
:1052F0000ED0636A002B0BD0300001F033FD002884
:10530000F2D0013D01F000FFEAB26DB2002AF0D107
:105310004523FF22E25402F0ADFA02F0C5F9102352
:105320009946E55DA1446DB2002D05DC13E0013D19
:10533000EAB26DB2002A0ED02369002B0BD048468A
:1053400001F010FD0028F2D0013D01F0DDFEEAB2CF
:105350006DB2002AF0D1FF23E35502F08BFA02F080
:10536000DBFC02F0A1F9A36B002B0BD002F082FA58
:1053700002F09AF9A56B002D00D074E0019B002B80
:1053800000D03BE702F076FA002005B0C0BCB94679
:10539000B046F0BD02F06EFA24239946A144484677
:1053A000019901F07FFB02F07FF94523E55C6DB2C6
:1053B000002D05DC13E0013DEAB26DB2002A0ED0EB
:1053C000636A002B0BD0484601F0CCFC0028F2D0D9
:1053D000013D01F099FEEAB26DB2002AF0D14523F9
:1053E000FF22E25402F046FA02F05EF94423E55C43
:1053F000343B99466DB2A144002D05DC13E0013D1C
:10540000EAB26DB2002A0ED02369002B0BD04846B9
:1054100001F0A8FC0028F2D0013D01F075FEEAB2CF
:105420006DB2002AF0D14423FF22E25402F022FAA6
:1054300002F072FC00289BD102F01CF998E7236C63
:10544000002B00D1C2E618481849FEF7A3FFBDE6BD
:1054500015481749FEF79EFFC0E6BE211248C90055
:10546000FEF798FFAEE6226C002A08D0E168A36838
:105470008918E16099420BD2404606F033FA23695D
:10548000013DA563002B06D102F0F4F901207CE771
:105490002168E160F0E72000103001F063FC002893
:1054A000F2D002F0E7F8EFE7CC4D0510F40500006C
:1054B000F9050000F0B5CE46474680B585B0041E1C
:1054C000019100D15FE1236C002B00D04CE101F091
:1054D00033FE002803D1019B002B00D049E102F0EC
:1054E000E3F8A36B002B00D05BE1019B002B00D104
:1054F00037E102A801F0A8FC0023260098464427C3
:10550000243602F0B7F900F0EFFE02F0CDF8E35DCB
:105510005BB2013301D10023E3554522A35C5BB2AA
:10552000013301D10023A35402F0A4F901A902A878
:1055300001F096FC002852D102F0B6F8A36B002BC4
:1055400000D1AEE002F096F902F0AEF84523E55C3A
:105550006DB2002D17DD213B9946A14404E0013DC9
:10556000EAB26DB2002A0ED0636A002B0BD0484617
:1055700001F0F8FB0028F2D0013D01F0C5FDEAB2D0
:105580006DB2002AF0D14523FF22E25402F072F9F5
:1055900002F08AF84423E55C6DB2002D17DD343B40
:1055A0009946A14404E0013DEAB26DB2002A0ED052
:1055B0002369002B0BD0484601F0D4FB0028F2D021
:1055C000013D01F0A1FDEAB26DB2002AF0D1442301
:1055D000FF22E25402F04EF902F09EFB56E002F088
:1055E00063F84523E55C6DB2002D05DC13E0013D59
:1055F000EAB26DB2002A0ED0636A002B0BD03000E5
:1056000001F0B0FB0028F2D0013D01F07DFDEAB2CF
:105610006DB2002AF0D14523FF22E25402F02AF9AC
:1056200002F042F8E55D6DB2002D17DD10239946BA
:10563000A14404E0013DEAB26DB2002A0ED0236914
:10564000002B0BD0484601F08DFB0028F2D0013D25
:1056500001F05AFDEAB26DB2002AF0D1FF23E35502
:1056600002F008F902F058FB02F01EF8A36B002BC1
:105670000AD102F0FFF84346002B6AD1002005B0A2
:10568000C0BCB946B046F0BD02F0F4F802F00CF828
:10569000A36B002B00D084E0019B002B00D030E7EF
:1056A0005FE002F0E7F82368002B71D024239946CD
:1056B000A1444846019901F0F5F901F0F5FF4523B1
:1056C000E55C6DB2002D05DC13E0013DEAB26DB280
:1056D000002A0ED0636A002B0BD0484601F042FB33
:1056E0000028F2D0013D01F00FFDEAB26DB2002AB0
:1056F000F0D14523FF22E25402F0BCF801F0D4FFC0
:105700004423E55C6DB2002D17DD343B9946A1447E
:1057100004E0013DEAB26DB2002A0ED02369002BED
:105720000BD0484601F01EFB0028F2D0013D01F0ED
:10573000EBFCEAB26DB2002AF0D14423FF22E2541E
:1057400002F098F802F0E8FA00289FD101F092FFE9
:105750009CE701F0A9FF616A00290FD1A06801F060
:10576000FFFE02F087F889E71A481B49FEF712FE90
:10577000ADE618481949FEF70DFEB0E60521236B8A
:105780001B68C91AEAE713481549FEF703FE9AE6B3
:1057900001F08AFFA06801F0E5FD804602F06AF89A
:1057A00084E7013BA3632368002B0FD02369002B00
:1057B00003D102F05FF8012061E72000103001F012
:1057C000D1FA0028F5D001F055FFF2E702F03EFDD6
:1057D000A060EBE7CC4D05108D060000920600009E
:1057E0008906000070B5050016000C0001F05CFF92
:1057F0004422AB5C5BB2013301D10023AB544522A0
:10580000AB5C5BB2013301D10023AB5402F032F840
:10581000AB6B002B46D001F047FF4523EC5C64B234
:10582000002C16DD2E00243604E0013CE2B264B206
:10583000002A0ED06B6A002B0BD0300001F092FAD8
:105840000028F2D0013C01F05FFCE2B264B2002A11
:10585000F0D14523FF22EA5402F00CF801F024FFB6
:105860004423EC5C64B2002C16DD2E00103604E0FC
:10587000013CE2B264B2002A0ED02B69002B0BD09F
:10588000300001F06FFA0028F2D0013C01F03CFC3E
:10589000E2B264B2002AF0D14423FF22EA5401F0BC
:1058A000E9FF70BD280032002100243001F008FA21
:1058B000B1E7C04610B5FEF7ADFF054C2368022BDB
:1058C00000D8FEE7FEF7A6FF2368022BFAD8F8E718
:1058D00044570120F8B5D023CE4647461B061D6825
:1058E000714BAD005B59060080B5002B54D06F4A58
:1058F000336B126893424BD36D4C5F1E2268904607
:10590000226894462268926B002A03DB2268926B1D
:10591000012A65DD002001235B42984662686168C8
:1059200063689B6B002B03DB63689B6B012B39DD8A
:10593000002813D14346013310D0D0231B061B6827
:10594000984200D17BE08700E3599B6B023305D07E
:10595000FEF774FF0222E35952429A636359DB6BEC
:10596000DB0715D46359326B1B6B9A4210D9514B2C
:105970005B59012B0CD063599B6B002B08DB6359DF
:105980009B6B012B04DCFA214B488900FEF702FDDA
:10599000C0BCB946B046F8BDE32147488900FEF7D0
:1059A000F9FCA4E7434B99465B68002BC0D1C96B57
:1059B00001331940136BB26B5B1A002A02DBB26B26
:1059C000012A41DDBB423FDC726892073CD5002BC7
:1059D00002DB326B93423EDB0028BFD10120ACE7F3
:1059E000344A10689146002894D162460121D26B56
:1059F00011404246126B521AB16B002902DBB16BA7
:105A000001293ADD974238DB7368DB073FD4012375
:105A10005B429846002A00DA80E7D0231B061B6809
:105A2000002B3BD023689B6B023306D00020FEF78F
:105A300005FF0222236852429A6301206EE7012289
:105A40001C4B8000C25089E7002B00DA70E7326BF4
:105A50009A4200DC6CE7D0231B061B68012B1AD08E
:105A600063689B6B023300D178E70120FEF7E6FE06
:105A70000222636852429A6370E7002A00DA4AE71A
:105A8000934200DC47E701235B429846C5E70023C9
:105A900017009846BEE74A4653605FE701234A462F
:105AA000012013603AE7C046F05702200858022050
:105AB00028570120DC580320504E0510F0B5D6467B
:105AC0004F464646424BC0B51B6804009846414BC2
:105AD0000E001B689946404B1B689A46EFF31082F4
